:020000001528C1
:100008007E14803120007F08F0002100901E102807
:100018002000901E10288C2470082000FF007E10FD
:1000280009001628FB01E401E501E601E70120309B
:1000380084000130850040306A24D6308400833043
:100048008500203086000030870022307024F83088
:10005800840083308500A0308600003087001C3083
:1000680070247E102000382876248230F100043075
:10007800F2007C248B170B17803032009800200088
:10008800E301053063020318772822008C01200061
:10009800E2010830620203186B286335203E8600AF
:1000A8008701403FE000413FE10061085A242000F9
:1000B8006335203E8600870101085A24013020005C
:1000C800E0006008E20708306202031C5128103083
:1000D80022008C0001302000E0006008E3070530B2
:1000E8006302031C49281424A923FB01FB0A3430AA
:1000F8002000E0006008D3003230E1006108D4003D
:1001080004307C22E830F1000330F2003724FB0190
:10011800FB033C302000E0006008D3001E30E10003
:100128006108D40003307C22E830F1000330F2008B
:1001380037242A302000E0006008D3000F30E100A7
:100148006108D40005307C22E830F1000330F20069
:100158003724FB01FB0AB0302000E0006008D30020
:100168001E30E1006108D40006307C22E830F1003E
:100178000330F2003724FB01FB0334302000E00099
:100188006008D3003230E1006108D40004307C22DA
:10019800E830F1000330F2003724A0302000E000FE
:1001A8006008D3001E30E1006108D40008307C22CA
:1001B800E830F1000330F2003724FB01FB0A2A3053
:1001C8002000E0006008D3000F30E1006108D4008F
:1001D80005307C22E830F1000330F2003724FB01BF
:1001E800FB03B0302000E0006008D3001E30E100BF
:1001F8006108D40006307C22E830F1000330F200B8
:100208003724FB01FB0A3C302000E0006008D300E3
:100218001E30E1006108D40003307C22E830F10090
:100228000330F2003724A0302000E0006008D3003B
:100238001E30E1006108D40008307C22E830F1006B
:100248000330F200372479280C3418347F34FE3414
:100258009F34FE349F340234FE34FE34FD34AA3415
:10026800FF34FE342434483418343034FF34FE3438
:100278004934243449342434FF34FE34FF34FE3402
:10028800FF34FE3428342834003400340134F03488
:1002980001341034FF34FE34FF34FE34FF34FE34AE
:1002A800FF34FE3424344834003400347E34FC34C3
:1002B8007E34FC347E34FC347E34FC347E34FC34AE
:1002C800FF34FE3424344834003400347F34FC34A2
:1002D8007F34FC347F34FC347F34FC3460340C3499
:1002E800FF34FE342434483400340034033480347A
:1002F8003F34F8347F34FC347F34FC343F34F834F2
:10030800FF34FE3424344834003400347F34FC3461
:100318007F34FC347F34FC343F34F8341F34F034F9
:10032800FF34FE3424344834003400347F34FC3441
:100338007F34FC347E34FC343C3478341834303424
:10034800FF34FE342434483400340034FF34FE349F
:100358004934243449342434FF34FE34FF34FE3421
:10036800FF34FE3428342834023400340F34FE3489
:100378001F34FE347A34AA34CF34FE34FF34FE34CA
:100388007F34FE341434143400340034FF34FE3423
:10039800FF34FE34AA34AA34FF34FE34FF34FE346A
:1003A800FF34FE342834283400348034FF34E034F9
:1003B800FF34F034AA34BC34FF34E634FF34FE345E
:1003C800FF34FC3450345034F03400346334FE3499
:1003D80063341A34FF341C34FF34FC34FF34FC34E7
:1003E800FF34FE345034D834003400340034003440
:1003F8003F34F8347F34FC347F34FE347F34FE34A9
:10040800FF34FE34283428347B08803A7F3E031CAE
:10041800422A20004B08CE00CF01CE0ECF0EF0307E
:10042800CF054E080F39CF04F030CE054E083F3EB9
:10043800D00000304F3DD1004A08803AD200510820
:10044800803A5202031D2A2A50084902031808005C
:1004580001302000CB024B08CE00CF01CE0ECF0ECC
:10046800F030CF054E080F39CF04F030CE054E08D6
:10047800C9024F08CA3BCA1B0800742A20004B084F
:10048800CE00CF01CE0ECF0EF030CF054E080F397B
:10049800CF04F030CE0549084E074F0803184F0A1D
:1004A8004A07891B08000130CB024B08CE00CF0158
:1004B800CE0ECF0EF030CF054E080F39CF04F030F6
:1004C800CE054E08C9074F08CA3D4A08803ACE00F3
:1004D80080304E02031D722A40304902031808007A
:1004E80020004D08FA004C08F9004908302308009C
:1004F8002000DE007B08803A7F3E031C862ADC0150
:10050800DD018A2A3F30DC000030DD00DA01DB0142
:100518005E08D500D601D50ED60EF030D6055508A2
:100528000F39D604F030D5055508403ED7000030C5
:10053800563DD8005B08803AD9005808803A5902DD
:10054800031DA82A57085A0203180800142420007B
:10055800DF01DF0A5F085E02031CCC2A5D08CA00BF
:100568005C08C9005F08D5005508CB005F35FE3E22
:100578005307D600560886008701403FCC00413F0C
:10058800CD00082201302000D5005508DF07AE2A2B
:10059800A92320005408D500D6015508F1005608B3
:1005A800F20037247B082000D500D601D51BD603DE
:1005B8005508DC075608DD3D0130DA070030DB3D21
:1005C8008C2AF700403077020318080008307102BF
:1005D800031808007708F3000330F336890BF12A73
:1005E8007108F4000230F435FF3E031DF72A743514
:1005F800203E7307F5007508F8000130F30077080E
:100608000739FF3A013E073E890A0B2BF335890B60
:100618000A2B7308F4007408F60072080319222BD9
:10062800780886000130870001087604F30078080E
:10063800860001308700730881000800780886006A
:100648000130870076090105F3007808860001303B
:1006580087007308810008002000C400C701083023
:100668004702031808004408C2004208C600C8012F
:100678001030480203186E2B48080739031D502B09
:10068800790884007A0885000008C2004208C5007D
:100698000130F9070030FA3D4708C2004208F1006E
:1006A80045088039C3004308F2004608E5220310D4
:1006B8002000C50DFB1F622B0130632BFF30C200E9
:1006C8004208C6070130C2004208C8071030480275
:1006D800031C402B0130C2004208C707332B2200FD
:1006E8008C01243021008C00203023008C00240051
:1006F8008C0125008C0100308B1B0130F1008B131D
:1007080055303C008F00AA308F000F103D001108B3
:10071800E039183891003C002008E0390138A00081
:100728002108E0390238A1003D001008E0391938E5
:10073800900055303C008F00AA308F000F14711CB8
:10074800A72B8B1708008B1308002030F2007208C3
:10075800F300F501F50A09307502031808002200B4
:100768008C01F401083074020318CE2B75085A2442
:10077800730886000130870001085A240130F2000E
:100788007208F3070130F2007208F40708307402A7
:10079800031CBA2B103022008C000130F2007208C2
:1007A800F507AF2B00340F3401340C34003409340E
:1007B80005340A3407340B34B8348134C8348134EE
:1007C800C8348134C8348134D8348134E83481342D
:1007D800F8348134A8348134A834813438348134ED
:1007E800383481343834813448348134683481343D
:1007F800783481347834813488348134983481343D
:1008080068348134583481342834813468348134EC
:1008180058348134583481346834813458348134BC
:100828002030F1007108F2006030720203180800ED
:10083800720886000130870081010130F1007108DB
:10084800F207182C2000970145309800F9309600DF
:1008580095019012210090169330F1000430F200B7
:100868007C2490240800720820006702031D3E2C97
:10087800710866020318422C6300372CE601E70171
:1008880008002000640865040319080065088A0048
:1008980064080A0084310800320099019B019D0117
:1008A80006309F009E011C180800572CF1002400F8
:1008B800951371089100141C5F2C11080800403032
:1008C8002400940021309500920108006400800102
:1008D8000131890B6B2C0034FE0012001E00FE0B48
:1008E800712C0034732350248824632426240800A0
:1008F80072082000E5007108E400080001302000BB
:10090800E6070030E73D0800163021009700080090
:1009180020009012452408002000971708000800BE
:020000040001F9
:08000E008CFFF2FFFFDFFFFF92
:00000001FF
