:020000001528C1
:100008007E14803120007F08F0002100901E102807
:100018002000901E10283B2670082000FF007E104C
:1000280009001628FC01493084000030850025307D
:100038001526A03084000030850040301526DF30BA
:10004800840085308500E0308600003087000A3063
:100058001B267E102000E02918348134483481346E
:1000680048348134483481344834813428348134E4
:1000780018348134483481344834813448348134E4
:1000880048348134283481343834813448348134D4
:100098004834813448348134483481344834813494
:1000A80048348134583481341834813448348134A4
:1000B8004834813448348134483481344834813474
:1000C80048348134283481340C3418347F34FE3475
:1000D8009F34FE349F340234FE34FE34FD34AA3497
:1000E800FF34FE342434483418343034FF34FE34BA
:1000F800A4344A34A4344A34FF34FE34FF34FE3482
:10010800FF34FE3428342834003400340134F83401
:1001180001341834FF34FE34FF34FE34FF34FE3427
:10012800FF34FE3424344834003400347E34FC3444
:100138007E34FC347E34FC347E34FC347E34FC342F
:10014800FF34FE3424344834003400347F34FC3423
:100158007F34FC347F34FC347F34FC3460340C341A
:10016800FF34FE34243448340034003403348034FB
:100178003F34F8347F34FC347F34FC343F34F83473
:10018800FF34FE3424344834003400347F34FC34E3
:100198007F34FC347F34FC343F34F8341F34F0347B
:1001A800FF34FE3424344834003400347F34FC34C3
:1001B8007F34FC347E34FC343C34783418343034A6
:1001C800FF34FE342434483400340034003400341E
:1001D80000340034403404347F34FC347F34FC343D
:1001E800FF34FE342434483400340034FF34FE3401
:1001F8004934243449342434FF34FE34FF34FE3483
:10020800FF34FE342834283418343034FF34FE34B4
:100218004934243449342434FF34FE34FF34FE3462
:10022800FF34FE3428342834003404340034FE34D7
:1002380001343E340F34EA347F34FE34FF34FE3464
:100248007F34FE341434143440340034FE34003423
:10025800F9340034AF34E034FF34FC34FF34FE3476
:10026800FF34FC3450345034023400340F34FE343C
:100278001F34FE347A34AA34CF34FE34FF34FE34CB
:100288007F34FE341434143400347034FF34FE34B4
:10029800FF34FE34AA34AA34FF34FE34FF34FE346B
:1002A800FF34FE342834283400348034FF34E034FA
:1002B800FF34F034AA34BC34FF34E634FF34FE345F
:1002C800FF34FC3450345034F03400346334FE349A
:1002D80063341834FF341C34FF34FC34FF34FC34EA
:1002E800FF34FE345034D834003400340034003441
:1002F8003F34F8347F34FC347F34FE347F34FE34AA
:10030800FF34FE3428342834183430343F34FE3473
:1003180052342234D2342234FF34FE34FF34FE34D3
:10032800FF34FE342834283418343034FF34FE3493
:100338009134123491341234FF34FE34FF34FE34D5
:10034800FF34FE342834283418343034FF34F83479
:100358008834943488349634FF34FE34FF34FE34C1
:10036800FF34FE34283428347834803478348034A8
:1003780078348034783480347834803478348034F5
:100388008834813498348134983481349834813471
:1003980098348134A8348134683481347834813491
:1003A800F8348034F83480347834803478348034C5
:1003B800783480340834813406262D30F100063034
:1003C800F20027268B170B17803032009800200088
:1003D800C7010530470203181F2A22008C0120009C
:1003E800C601083046020318132A4735E03E860046
:1003F8008701403FC400413FC5004508FD25200056
:100408004735E03E860087010108FD2501302000C0
:10041800C4004408C60708304602031CF9291030F6
:1004280022008C0001302000C4004408C7070530B2
:100438004702031CF12972252A2521001B082000E8
:10044800C4004408CD0094252000C4004408C80016
:10045800481C312AFC01FC0A332AFC01FC033C300D
:1004680048020318392A56255D2A463020004802DA
:100478000318402AC8255D2A78302000480203184E
:10048800472AB0255D2AB4302000480203184E2AB6
:10049800FA245D2AD230200048020318552ABC25C8
:1004A8005D2AF0302000480203185C2A78225D2A71
:1004B800DF2394252000C400C501C435C50DC4350B
:1004C800C50DC435C50D4408E83EF2000330453D6E
:1004D800F300A22521001B0803390319272A9425B4
:1004E8000130F20000306C2A942580390319812AE2
:1004F80068302000CE008030852A88302000CE0069
:100508008030CF0094250F392000C0004008C20079
:100518000130C0004008C207043042020318982A7C
:100528000730C0004008C207C301C30AD42A4335B4
:100538004E3E86008701B830C03F8030C13FD02A88
:1005480043354E3E86008701C830C03F8030C13FEA
:10055800D02A43354E3E86008701D830C03F8030D0
:10056800C13FD02A43354E3E86008701E830C03F60
:100578008030C13FD02A43354E3E860087019830EF
:10058800C03F8030C13FD02A43354E3E86008701A8
:10059800A830C03F8030C13F0130C0004008C307C9
:1005A800420843020318ED2A942507392000C000A9
:1005B800C1014108003A0319E22AC82A4008840008
:1005C800063004020318C82A863121300407820045
:1005D800D02A4E30B1000030B2001E30C0004008B2
:1005E800B30042086C2308007C08803A7F3E031C55
:1005F800322B20002908AC00AD01AC0EAD0EF03056
:10060800AD052C080F39AD04F030AC052C083F3E81
:10061800AE0000302D3DAF002808803AB0002F080A
:10062800803A3002031D1A2B2E08270203180800EF
:1006380001302000A9022908AC00AD01AC0EAD0EB6
:10064800F030AD052C080F39AD04F030AC052C089E
:10065800A7022D08A83BA81B0800642B2000290826
:10066800AC00AD01AC0EAD0EF030AD052C080F3965
:10067800AD04F030AC0527082C072D0803182D0A07
:100688002807891B08000130A9022908AC00AD0120
:10069800AC0EAD0EF030AD052C080F39AD04F030BE
:1006A800AC052C08A7072D08A83D2808803AAC00FF
:1006B80080302C02031D622B4030270203180800EB
:1006C80020002B08FA002A08F900270881240800CE
:1006D8002000BE007C08803A7F3E031C762BBC01BC
:1006E800BD017A2B3F30BC000030BD00BA01BB0110
:1006F8003E08B400B501B40EB50EF030B5053408A7
:100708000F39B504F030B4053408403EB600003067
:10071800353DB7003B08803AB8003708803A3802C0
:10072800031D982B36083A0203180800722520008A
:10073800BF01BF0A3F083E02031CC62B3D08A800A4
:100748003C08A7003F08B4003408A9003F08B500DA
:10075800B601B535B60D3508FE3EB700FF30363D5B
:10076800B8003108370784003208383D8500003F5B
:10077800AA00013FAB00F82201302000B400340881
:10078800BF079E2B2A2520003308B400B501340882
:10079800F2003508F300A2257C082000B400B5015A
:1007A800B41BB5033408BC073508BD3D0130BA0792
:1007B8000030BB3D7C2B942501390319E82B6830A8
:1007C8002000CE008030EC2B88302000CE00803016
:1007D800CF00C101C10A1030410203182F2C942503
:1007E800FB007B082000C000B43040020318052C31
:1007F80041354E3E86008701B830C03F8030C13F4A
:10080800272CCD3040020318122C41354E3E86006D
:100818008701C830C03F8030C13F272CE6304002F6
:1008280003181F2C41354E3E86008701D830C03F43
:100838008030C13F272C41354E3E86008701E83085
:10084800C03F8030C13F0130FB007B08C10710303A
:100858004102031CF32B4E30B1000030B2001E30B1
:10086800FB007B08B30010306C230800F700403011
:100878007702031808000830710203180800770887
:10088800F3000330F336890B462C7108F40002306C
:10089800F435FF3E031D4C2C7435A03E7307F5005C
:1008A8007508F8000130F30077080739FF3A013E70
:1008B800073E890A602CF335890B5F2C7308F40016
:1008C8007408F60072080319752C780886008701E9
:1008D80001087604F3007808860087017308810010
:1008E800080078088600870176090105F300780872
:1008F800860087017308810008002000A200A50176
:1009080008302502031808002208A0002008A400C7
:10091800A601103026020318BF2C26080739031D2C
:10092800A12C790884007A0885000008A000200816
:10093800A3000130F9070030FA3D2508A00020087F
:10094800F10023088039A1002108F20024083A2484
:1009580003102000A30DFC1FB32C0130B42CFF3072
:10096800A0002008A4070130A0002008A607103026
:100978002602031C912C0130A0002008A507842C16
:1009880022008C01243021008C00203023008C00B0
:1009980024008C0125008C0100308B1B0130F100F4
:1009A8008B1355303C008F00AA308F000F103D008C
:1009B8001108E039183891003C002008E039013866
:1009C800A0002108E0390238A1003D001008E039F4
:1009D8001938900055303C008F00AA308F000F1452
:1009E800711CF82C8B1708008B1308009425FB004A
:1009F8007B082000C0006430400203180E2D4830E8
:100A0800B1008030B2000F30FB007B08B300083023
:100A18006C230800C8302000400203181E2D5830EF
:100A2800B1008030B2000F30FB007B08B300083003
:100A38006C23080030302000B1008030B2000F3045
:100A4800FB007B08B3000C306C230800A030F200D8
:100A58007208F300F501F50A093075020318080059
:100A680022008C01F4010830740203184E2D750819
:100A7800FD257308860087010108FD250130F20075
:100A88007208F3070130F2007208F40708307402A4
:100A9800031C3B2D103022008C000130F20072083C
:100AA800F507302D942501390319662DB83020003B
:100AB800B1008130B2001930FB007B08B30006306A
:100AC8006C230800D8302000B1008130B2001E30FD
:100AD800FB007B08B30003306C230800A030F10052
:100AE8007108F200E03072020318080072088600EC
:100AF800870181010130F1007108F207762D20008D
:100B0800970145309800F930960095019012210020
:100B180090164230F1000630F20027263F260800E2
:100B280020004D354D074D074D07F1007108CD00E8
:100B38000130F1007108CD074D0808007308200046
:100B48004C02031DA92D72084B020318AD2D63003A
:100B5800A22DCB01CC010800C4302000B1008130A7
:100B6800B2001430FB007B08B30006306C23080089
:100B7800D0302000B1008130B2003230FB007B0859
:100B8800B30004306C230800DE302000B10081304F
:100B9800B2002830FB007B08B30001306C2308004A
:100BA800200049084A04031908004A088A0049082D
:100BB8000A008531080000340F3401340C34003445
:100BC800093405340A3407340B34320099019B0187
:100BD8009D0106309F009E011C180800F02DF5307D
:100BE80021009D00A0309E0003309F009B019C01C6
:100BF8000800F1002400951371089100141C022EBE
:100C080011080800C424E92533260E263726F325C3
:100C1800832508004030240094002130950092017B
:100C28000800640080010131890B162E0034FE0093
:100C380012001E00FE0B1C2E00349B2AA42AAD2A8B
:100C4800B62ABF2ABF2A72082000CA007108C90044
:100C5800080001302000CB070030CC3D08001630DA
:100C6800210097000800203022009700080020008B
:0E0C78009012D42508002000971708000800ED
:020000040001F9
:08000E008CFFF2FFFFDFFFFF92
:00000001FF
