:020000001528C1
:100008007E14803120007F08F0002100901E102807
:100018002000901E1028C72770082000FF007E10BF
:1000280009001628B401B501B601B701A030840053
:10003800003085004030AB277E10200003290C34A7
:1000480018347F34FE349F34FE349F340234FE3437
:10005800FE34FD34AA34FF34FE34243448341834D2
:100068003034FF34FE344934243449342434FF34E2
:10007800FE34FF34FE34FF34FE3428342834003490
:1000880000340134F03401341034FF34FE34FF34CA
:10009800FE34FF34FE34FF34FE3424344834003454
:1000A80000347E34FC347E34FC347E34FC347E34BC
:1000B800FC347E34FC34FF34FE34243448340034B9
:1000C80000347F34FC347F34FC347F34FC347F3498
:1000D800FC3460340C34FF34FE34243448340034A7
:1000E8000034033480343F34F8347F34FC347F34B4
:1000F800FC343F34F834FF34FE34243448340034BC
:1001080000347F34FC347F34FC347F34FC343F3497
:10011800F8341F34F034FF34FE34243448340034C7
:1001280000347F34FC347F34FC347E34FC343C347B
:10013800783418343034FF34FE34243448340034EE
:100148000034FF34FE344934243449342434FF3431
:10015800FE34FF34FE34FF34FE34283428340234AD
:1001680000340F34FE341F34FE347A34AA34CF34CA
:10017800FE34FF34FE347F34FE3414341434003437
:100188000034FF34FE34FF34FE34AA34AA34FF347A
:10019800FE34FF34FE34FF34FE342834283400346F
:1001A8008034FF34E034FF34F034AA34BC34FF34F4
:1001B800E634FF34FE34FF34FC3450345034F03429
:1001C80000346334FE3463341A34FF341C34FF348F
:1001D800FC34FF34FC34FF34FE345034D83400345B
:1001E8000034003400343F34F8347F34FC347F3436
:1001F800FE347F34FE34FF34FE3428342834B127EB
:10020800BD30F1000730F200B7278B170B1780308D
:100218003200980022008C012000AF0108302F0224
:10022800031823290F309B2700309B27013020001B
:10023800AE002E08AF0708302F02031C1629103015
:1002480022008C008C012000B00108303002031815
:100258003A290C309B2701309B2701302000AE0043
:100268002E08B00708303002031C2D291030220058
:100278008C008C012000B10108303102031851298B
:1002880009309B2700309B2701302000AE002E0844
:10029800B10708303102031C4429103022008C00B9
:1002A8008C012000B20108303202031868290A3094
:1002B8009B2705309B2701302000AE002E08B2078F
:1002C80008303202031C5B29103022008C008C019C
:1002D8002000B3010830330203187F290B309B2715
:1002E80007309B2701302000AE002E08B3070830E6
:1002F8003302031C7229103022008C005127252755
:10030800BE24E830F1000330F20078270D25E830EC
:10031800F1000330F2007827AD23E830F100033014
:10032800F20078274223E830F1000330F200782702
:100338006B24E830F1000330F2007827C121E8305F
:10034800F1000330F20078270E24E830F100033082
:10035800F2007827D322E830F1000330F200782742
:100368005225E830F1000330F20078274C22E830BB
:10037800F1000330F200782784293F302000A900DB
:100388000030AA002A08803AFC007F307C02031D56
:10039800CF2981302902031C0800512720002A0890
:1003A800A5002908A400A601A60A4330A7008030AA
:1003B800A8004C2620002A08A5002908A40002301D
:1003C800FC007C08A6006330A7008030A8004C26FB
:1003D80020002A08A5002908A4000330FC007C0896
:1003E800A6007330A7008030A8004C2620002A08F9
:1003F800A5002908A4000430FC007C08A60073307E
:10040800A7008030A8004C2620002A08A50029084B
:10041800A4000530FC007C08A6008330A7008030CB
:10042800A8004C2620002A08A5002908A4000630A8
:10043800FC007C08A6009330A7008030A8004C265A
:1004480020002A08A5002908A4000730FC007C0821
:10045800A6006330A7008030A8004C2620002A0898
:10046800A5002908A4000830FC007C08A600533029
:10047800A7008030A8004C2625271E30F100003048
:10048800F2007827FF302000A907FF30AA3DC629CF
:10049800FB01FC017C08803AFA0080307A02031DD7
:1004A800572AC0307B020318080051277C08200017
:1004B800A5007B08A400A601A60A4330A700803047
:1004C800A80011267C082000A5007B08A4000230A3
:1004D800FA007A08A6006330A7008030A800112629
:1004E8007C082000A5007B08A4000330FA007A08E5
:1004F800A6007330A7008030A80011267C082000D1
:10050800A5007B08A4000430FA007A08A60073301E
:10051800A7008030A80011267C082000A5007B08D1
:10052800A4000530FA007A08A6008330A7008030BE
:10053800A80011267C082000A5007B08A40006302E
:10054800FA007A08A6009330A7008030A800112688
:100558007C082000A5007B08A4000730FA007A0870
:10056800A6006330A7008030A80011267C08200070
:10057800A5007B08A4000830FA007A08A6005330CA
:10058800A7008030A800112625271E30F100003072
:10059800F20078270130FB070030FC3D4E2A3F303F
:1005A8002000A9000030AA002A08803AFC007F3009
:1005B8007C02031DE12AA1302902031C08005127EF
:1005C80020002A08A5002908A400A601A60A2330AD
:1005D800A7008030A8004C2620002A08A50029087A
:1005E800A4000230FC007C08A6006330A70080301D
:1005F800A8004C2620002A08A5002908A4000330DA
:10060800FC007C08A6005330A7008030A8004C26C8
:1006180020002A08A5002908A4000430FC007C0852
:10062800A6005330A7008030A8004C2620002A08D6
:10063800A5002908A4000530FC007C08A60063304A
:10064800A7008030A8004C2620002A08A500290809
:10065800A4000630FC007C08A6005330A7008030B8
:10066800A8004C2625271E30F1000030F20078271C
:10067800FF302000A907FF30AA3DD82AFB01FC0162
:100688007C08803AFA0080307A02031D4D2BA03096
:100698007B020318080051277C082000A5007B086E
:1006A800A400A601A60A2330A7008030A8001126BE
:1006B8007C082000A5007B08A4000230FA007A0814
:1006C800A6006330A7008030A80011267C0820000F
:1006D800A5007B08A4000330FA007A08A60053306E
:1006E800A7008030A80011267C082000A5007B0800
:1006F800A4000430FA007A08A6005330A70080301E
:10070800A80011267C082000A5007B08A40005305D
:10071800FA007A08A6006330A7008030A8001126E6
:100728007C082000A5007B08A4000630FA007A089F
:10073800A6005330A7008030A800112625271E30B8
:10074800F1000030F20078270130FB070030FC3D53
:10075800442B3F302000A9000030AA002A08803A24
:10076800FC007F307C02031DBB2BB1302902031C27
:100778000800512720002A08A5002908A400A6017E
:10078800A60AB330A7008030A8004C2620002A080B
:10079800A5002908A4000230FC007C08A600C3308C
:1007A800A7008030A8004C2620002A08A5002908A8
:1007B800A4000330FC007C08A600C330A7008030EA
:1007C800A8004C2620002A08A5002908A400043007
:1007D800FC007C08A600C330A7008030A8004C2687
:1007E80020002A08A5002908A4000530FC007C0880
:1007F800A600D330A7008030A8004C2625270F304C
:10080800F1000030F2007827FF302000A907FF3000
:10081800AA3DB22BFB01FC017C08803AFA0080302B
:100828007A02031D192C90307B0203180800512707
:100838007C082000A5007B08A400A601A60AB33006
:10084800A7008030A80011267C082000A5007B089E
:10085800A4000230FA007A08A600C330A70080304E
:10086800A80011267C082000A5007B08A4000330FE
:10087800FA007A08A600C330A7008030A800112625
:100888007C082000A5007B08A4000430FA007A0840
:10089800A600C330A7008030A80011267C082000DD
:1008A800A5007B08A4000530FA007A08A600D3301A
:1008B800A7008030A800112625270F30F10000304E
:1008C800F20078270130FB070030FC3D102C3F3048
:1008D8002000A9000030AA002A08803AFC007F30D6
:1008E8007C02031D792CC1302902031C0800512702
:1008F80020002A08A5002908A400A601A60AE330BA
:10090800A7008030A8004C2620002A08A500290846
:10091800A4000230FC007C08A600F330A700803059
:10092800A8004C2620002A08A5002908A4000330A6
:10093800FC007C08A600A330A7008030A8004C2645
:1009480020002A08A5002908A4000430FC007C081F
:10095800A600A330A7008030A8004C2625273230F7
:10096800F1000030F2007827FF302000A907FF309F
:10097800AA3D702CFB01FC017C08803AFA0080300B
:100988007A02031DC92C80307B0203180800512706
:100998007C082000A5007B08A400A601A60AE33075
:1009A800A7008030A80011267C082000A5007B083D
:1009B800A4000230FA007A08A600F330A7008030BD
:1009C800A80011267C082000A5007B08A40003309D
:1009D800FA007A08A600A330A7008030A8001126E4
:1009E8007C082000A5007B08A4000430FA007A08DF
:1009F800A600A330A7008030A80011262527323092
:100A0800F1000030F20078270130FB070030FC3D90
:100A1800C02C3F302000A9000030AA002A08803AE4
:100A2800FC007F307C02031D1B2DD1302902031CE2
:100A38000800512720002A08A5002908A400A601BB
:100A4800A60A3330A7008030A8004C2620002A08C8
:100A5800A5002908A4000230FC007C08A600333059
:100A6800A7008030A8004C2620002A08A5002908E5
:100A7800A4000330FC007C08A6003330A7008030B7
:100A8800A8004C2625271E30F1000030F2007827F8
:100A9800FF302000A907FF30AA3D122DFB01FC0101
:100AA8007C08803AFA0080307A02031D5D2D703090
:100AB8007B020318080051277C082000A5007B084A
:100AC800A400A601A60A3330A7008030A80011268A
:100AD8007C082000A5007B08A4000230FA007A08F0
:100AE800A6003330A7008030A80011267C0820001B
:100AF800A5007B08A4000330FA007A08A60033306A
:100B0800A7008030A800112625271E30F1000030EC
:100B1800F20078270130FB070030FC3D542D2000FF
:100B2800A100A2010830220203180800A301103016
:100B380023020318CE2D23080739031DAF2D77088C
:100B48008400780885000008F9007908A0000130C1
:100B5800F7070030F83DA01FBA2D2208F9007908E0
:100B6800F1002303FF3A2107F126C32D20002208B4
:100B7800F9007908F1002303FF3A2107BC26031086
:100B88002000A00D0130F9007908A30710302302D6
:100B9800031C9F2D0130F9007908A207962D20002B
:100BA800A100A2010830220203180800A301103096
:100BB800230203180C2E23080739031DEF2D77088D
:100BC8008400780885000008F9007908A000013041
:100BD800F7070030F83DA01FF92D2208F900790821
:100BE800F10021082307F126012E20002208F90030
:100BF8007908F10021082307BC2603102000A00D66
:100C08000130F9007908A30710302302031CDF2DF7
:100C18000130F9007908A207D62D20002608A9007E
:100C2800AA01A90EAA0EF030AA0529080F39AA04AC
:100C3800F030A90529083F3EAB0000302A3DAC0042
:100C48002508803AAD002C08803A2D02031D2E2E6F
:100C58002B0824020318080001302000A6022608E9
:100C6800A900AA01A90EAA0EF030AA0529080F3971
:100C7800AA04F030A9052908A4022A08A53BA51B47
:100C880008002808F8002708F7002408932508001A
:100C980020002608FA00FB01FA0EFB0EF030FB05D7
:100CA8007A080F39FB04F030FA0524087A077B0824
:100CB80003187B0A2507891B08000130A6022608AD
:100CC800FA00FB01FA0EFB0EF030FB057A080F392B
:100CD800FB04F030FA057A08A4077B08A53D25082F
:100CE800803AFA0080307A02031D7C2E40302402BC
:100CF8000318080020002808F8002708F70024082F
:100D0800D325080022008C01243021008C002030DB
:100D180023008C0024008C0125008C0100308B1BE3
:100D28000130F1008B1355303C008F00AA308F0042
:100D38000F103D001108E039183891003C002008D8
:100D4800E0390138A0002108E0390238A1003D004F
:100D58001008E0391938900055303C008F00AA304F
:100D68008F000F14711CBA2E8B1708008B13080004
:100D7800F6004030760203180800083071020318A4
:100D880008007608F2000330F236890BC82E710885
:100D9800F3000230F335FF3E031DCE2E7335A03E1F
:100DA8007207F4007408F5007508860087010130A1
:100DB800F20076080739FF3A013E073E890AE52E18
:100DC800F235890BE42E7208FF3A0105F300750825
:100DD80086008701730881000800F600403076021B
:100DE8000318080008307102031808007608F2009A
:100DF8000330F236890BFD2E7108F3000230F3350B
:100E0800FF3E031D032F7335A03E7207F4007408DC
:100E1800F5007508860087010130F2007608073969
:100E2800FF3A013E073E890A1A2FF235890B192F1E
:100E380072080104F30075088600870173088100B1
:100E48000800A030F2007208F300F501F50A093035
:100E580075020318080022008C01F401083074029E
:100E68000318492F75089B27730886008701010816
:100E78009B270130F2007208F3070130F200720874
:100E8800F40708307402031C362F103022008C003F
:100E98000130F2007208F5072B2FA030F10071081D
:100EA800F200F3014030730203180800720886004C
:100EB800870181010130F1007108F2070130F1006A
:100EC8007108F307562F2000970145309800F93034
:100ED80096009501901221009016CE30F10007304F
:100EE800F200B727CB270800720820003702031D3D
:100EF8007F2F710836020318832F6300782FB601FD
:100F0800B701080020003408350403190800350823
:100F18008A0034080A0087310800320099019B01D1
:100F28009D0106309F009E011C180800982FF100B3
:100F38002400951371089100141CA02F11080800B3
:100F4800403024009400213095009201080064008C
:100F580080010131890BAC2F003486269127C327E5
:100F6800A4276727080072082000B5007108B4009C
:100F7800080001302000B6070030B73D08001630E1
:100F88002100970008002000901286270800200002
:060F980097170800080095
:020000040001F9
:08000E008CFFF2FFFFDFFFFF92
:00000001FF
