:020000001528C1
:100008007E14803120007F08F1002100901E102806
:100018002000901E10283D2571082000FF007E104A
:1000280009001628F801F901FA01FB0120308400C3
:10003800003085000D302125A03084000030850077
:10004800403021254125B3004225B4004325B500A1
:100058007E1020002F2827253330F2000530F300CA
:100068002D258B170B1780303200980022008C0149
:10007800FB0108307B0203184E280C301125013093
:10008800112501302000AF002F08FB0708307B0244
:10009800031C4128103022008C008C01FB01083021
:1000A8007B0203186428093011250030112501301E
:1000B8002000AF002F08FB0708307B02031C5728DD
:1000C800103022008C008C01FB0108307B020318E1
:1000D8007A280A3011250530112501302000AF009B
:1000E8002F08FB0708307B02031C6D281030220004
:1000F8008C008C01FB0108307B02031890280B3020
:1001080011250730112501302000AF002F08FB070B
:1001180008307B02031C8328103022008C00CA247C
:100128005C2446302000AF002F08F9007908803A97
:10013800943E031CC3290730AF002F08A4000830E1
:10014800AF002F08A5002808031DBE286430A200B0
:100158008330A300F70105307C2374302000A2000F
:100168008330A300F70117307C236C302000A200F5
:100178008330EA2820002803031DD6286C30A2000B
:100188008330A300F70105307C2364302000A200EF
:100198008330A300F70117307C2374302000A200BD
:1001A8008330EA2874302000A2008330A300F701CE
:1001B80005307C236C302000A2008330A300F701B7
:1001C80017307C2364302000A2008330A300F7019D
:1001D8002A307C230A302000AF002F08A400063004
:1001E800AF002F08A50001307805F200F3010C30AC
:1001F800F4000030F500AF244C302000AF0083300D
:10020800B00072082F07A2007308303DA300023027
:10021800AF002F08F70078087C2310302000AF00CB
:100228002F08A4000830AF002F08A5002808AF0049
:10023800B001AF0EB00EF030B0052F080F39B00482
:10024800F030AF05EC30B1008230B2002F08310732
:10025800A2003008323DA3007A08AF002F08F7004B
:1002680079087C232000B31B3F293308AF002F08EF
:10027800F200260827245C246430FD241030200076
:10028800AF002F08A4000830AF002F08A5007A0897
:10029800AF002F08F70079088D240A302000AF003E
:1002A8002F08A4000630AF002F08A5000230AF00C9
:1002B8002F08F70078088D242000B31B6E29330817
:1002C800AF002F08F2002608BB23FF302000AF0044
:1002D8002F08B3077908AF00B001AF1BB0032F1C7C
:1002E8007D290130AF002F08A8070330280603191D
:1002F800A80103307905AF00B0012F083004031DB1
:1003080089293508AF002F08FA077A08803A813E14
:1003180003189129B501B50AA1297A08803A7E3EC9
:10032800031CA129B501B5030730AF002F08B3009E
:100338007908F83EAF002F08A60007307905AF000E
:10034800B00102302F063004031DAE293408AF0077
:100358002F08F8077808031DB429B401B40ABA298C
:1003680036307806031DBA29B401B403FF30AF0054
:100378002F08F9077908803A943E03189F28EC3033
:10038800AF002F08F9007908803A393E03189528FC
:100398000730AF002F08A4000830AF002F08A500D1
:1003A8002808031DEB296430A2008330A300F7015D
:1003B80005307C2374302000A2008330A300F701AD
:1003C80017307C236C302000A2008330172A2000CD
:1003D8002803031D032A6C30A2008330A300F70111
:1003E80005307C2364302000A2008330A300F7018D
:1003F80017307C2374302000A2008330172A743011
:100408002000A2008330A300F70105307C236C3064
:100418002000A2008330A300F70117307C2364304A
:100428002000A2008330A300F7012A307C230A3081
:100438002000AF002F08A4000630AF002F08A50049
:1004480001307805F200F3010C30F4000030F500BB
:10045800AF244C302000AF008330B00072082F0763
:10046800A2007308303DA3000230AF002F08F70048
:1004780078087C2310302000AF002F08A400083033
:10048800AF002F08A5002808AF00B001AF0EB00ECE
:10049800F030B0052F080F39B004F030AF051C302C
:1004A800B1008330B2002F083107A2003008323D76
:1004B800A3007A08AF002F08F70079087C232000F2
:1004C800B31B6C2A3308AF002F08F2002608272434
:1004D8005C246430FD2410302000AF002F08A400F5
:1004E8000830AF002F08A5007A08AF002F08F700E2
:1004F80079088D240A302000AF002F08A4000630A8
:10050800AF002F08A5000230AF002F08F7007808C9
:100518008D242000B31B9B2A3308AF002F08F2005C
:100528002608BB23FF302000AF002F08B307790847
:10053800AF00B001AF1BB0032F1CAA2A0130AF00D7
:100548002F08A807033028060319A80103307905E6
:10055800AF00B0012F083004031DB62A3508AF00DC
:100568002F08FA077A08803A813E0318BE2AB50197
:10057800B50ACE2A7A08803A7E3E031CCE2AB501F7
:10058800B5030730AF002F08B3007908183EAF0055
:100598002F08A60007307905AF00B00102302F06FA
:1005A8003004031DDB2A3408AF002F08F807780849
:1005B800031DE12AB401B40AE72A36307806031D80
:1005C800E72AB401B4030130AF002F08F907C7299F
:1005D8001E3406343F341E347F34BE34DF34F034E6
:1005E800FF34E0347F34FE343F349F340E34C0345B
:1005F8001E3402343F341F347F34BE34DF34FC34BD
:10060800FF34E0347F34F0343F34DE340E34673462
:100618001E3400343F340F347F349F34DF34FC34CD
:100628007F34E034FF34F8343F34DF340E34673439
:10063800603478347834FC347D34FE340F34FB3441
:100648000734FF347F34FE34F934FC340334703417
:1006580040347834F834FC347D34FE343F34FB3491
:100668000734FF340F34FE347B34FC34E634703402
:1006780000347834F034FC34F934FE343F34FB343D
:100688000734FE341F34FF34FB34FC34E634703452
:1006980012340034BF3440347F348034BF344034A3
:1006A8007F348034A1344034923440347F348034F1
:1006B800BF3440347F348034BF34403452348034C3
:1006C80088348434543454346834503420342034D6
:1006D800543454344C345834703450342034203426
:1006E800923454346C3428347034503420342034E8
:1006F8002000AE00A9012508290203180800FB0103
:1007080024087B020318B22B7B080739031D982B9A
:1007180022088400230885000008AD002D08AB00DE
:100728000130A2070030A33DAB1FA22B7708AD0014
:100738002D08F2002E087B072724AA2B7708200013
:10074800AD002D08F2002E087B07BB230310200004
:10075800AB0D0130AD002D08FB07842B0130AD0037
:100768002D08F7070130AD002D08A9077F2BF600EB
:100778004030760203180800083072020318080097
:100788007608F3000330F336890BC72B7208F400A0
:100798000230F435FF3E031DCD2B7435A03E7307A0
:1007A800F50075082000AC002C0886008701013090
:1007B800F30076080739FF3A013E073E890AE52B20
:1007C800F335890BE42B7308FF3A0105F4002C0874
:1007D8008600870174088100080022008C012430FB
:1007E80021008C00203023008C0024008C0125007F
:1007F8008C0100308B1B0130F2008B1355303C000C
:100808008F00AA308F000F103D001108E03918380A
:1008180091003C002008E0390138A0002108E039A7
:100828000238A1003D001008E03919389000553011
:100838003C008F00AA308F000F14721C252C8B17D8
:1008480008008B130800F6004030760203180800F1
:1008580008307202031808007608F3000330F336F4
:10086800890B332C7208F4000230F435FF3E031D67
:10087800392C7435A03E7307F50075082000AC00CC
:100888002C08860087010130F30076080739FF3A03
:10089800013E073E890A512CF335890B502C730809
:1008A8000104F4002C088600870174088100080000
:1008B800A030F30073082000AC00AA01AA0A09308E
:1008C8002A020318080022008C01FB0108307B0271
:1008D8000318842C20002A08112520002C088600E3
:1008E8008701010811250130F30073082000AC07C7
:1008F8000130F3007308FB0708307B02031C6E2CE1
:10090800103022008C000130F30073082000AA0781
:10091800632C2000AE00A90125082902031808004D
:10092800FB0124087B020318A62C7708AD002D08CC
:10093800F2002E087B07BB2301302000AD002D08F4
:10094800FB07952C0130AD002D08F7070130AD00ED
:100958002D08A907902CF601F701721CB72C740812
:10096800F6077508F73D0130F435F50D890BB82CFD
:100978000130F336F20C890BBD2C72087304031D89
:10098800B12C7708F3007608F2000800A030F200D6
:1009980072082000AC00FB0140307B0203180800FD
:1009A8002C088600870181010130F2007208AC072B
:1009B8000130F2007208FB07D02C20009701453067
:1009C8009800F93096009501901221009016473052
:1009D800F2000530F3002D254425080020002008EA
:1009E80021040319080021088A0020080A0084311C
:1009F8000800F2007208200027020318052D630082
:100A0800FE2CA7010800320099019B019D010630C8
:100A18009F009E011C1808000E2DF200240095135B
:100A280072089100141C162D11080800403024008B
:100A38009400213095009201080064008001013182
:100A4800890B222D0034F123072539251A25E124A5
:100A5800080073082000A1007208A00008000130F7
:100A6800F00070082000A707080016302100970042
:100A7800080020009012F2240800FF3401340134E9
:080A8800200097170800080088
:020000040001F9
:08000E008CFFF2FFFFDFFFFF92
:00000001FF
